:020000020000FC
:100000000FEF0ABB07BB09E00BBB08BB00E00ABB54
:1000100007BB0FEF04BB01BB19B326B300E0E0E060
:10002000F0E0E0E0FAE0E10FF01F1491E0E0F0E032
:10003000E0E0FAE0E20FF01F249112BB25BB1AC0EA
:1000400019B326B3120F1A3010F420E003C01A506F
:1000500021E000C000E0E0E0FAE0E10FF01F1491C1
:10006000E0E0F0E0E0E0FAE0E20FF01F249112BBE4
:1000700025BB07C081E071E07A95F1F78A95D9F741
:04008000DFCFFFCF00
:0A0A00007E306D79335B5F707F7B01
:00000001FF
